{
  "_format": "hh-sol-artifact-1",
  "contractName": "FactoryNFT",
  "sourceName": "contracts/FactoryNFT.sol",
  "abi": [
    {
      "inputs": [],
      "stateMutability": "nonpayable",
      "type": "constructor"
    },
    {
      "anonymous": false,
      "inputs": [
        {
          "indexed": true,
          "internalType": "address",
          "name": "owner",
          "type": "address"
        },
        {
          "indexed": true,
          "internalType": "address",
          "name": "approved",
          "type": "address"
        },
        {
          "indexed": true,
          "internalType": "uint256",
          "name": "tokenId",
          "type": "uint256"
        }
      ],
      "name": "Approval",
      "type": "event"
    },
    {
      "anonymous": false,
      "inputs": [
        {
          "indexed": true,
          "internalType": "address",
          "name": "owner",
          "type": "address"
        },
        {
          "indexed": true,
          "internalType": "address",
          "name": "operator",
          "type": "address"
        },
        {
          "indexed": false,
          "internalType": "bool",
          "name": "approved",
          "type": "bool"
        }
      ],
      "name": "ApprovalForAll",
      "type": "event"
    },
    {
      "anonymous": false,
      "inputs": [
        {
          "indexed": false,
          "internalType": "uint256",
          "name": "preMintStartTime",
          "type": "uint256"
        },
        {
          "indexed": false,
          "internalType": "uint256",
          "name": "allowlistStartTime",
          "type": "uint256"
        },
        {
          "indexed": false,
          "internalType": "uint256",
          "name": "publicSaleStartTime",
          "type": "uint256"
        },
        {
          "indexed": false,
          "internalType": "uint256",
          "name": "publicSaleEndTime",
          "type": "uint256"
        },
        {
          "indexed": false,
          "internalType": "uint256",
          "name": "allowlistPrice",
          "type": "uint256"
        },
        {
          "indexed": false,
          "internalType": "uint256",
          "name": "salePrice",
          "type": "uint256"
        }
      ],
      "name": "Initialized",
      "type": "event"
    },
    {
      "anonymous": false,
      "inputs": [
        {
          "indexed": true,
          "internalType": "address",
          "name": "from",
          "type": "address"
        },
        {
          "indexed": true,
          "internalType": "address",
          "name": "to",
          "type": "address"
        },
        {
          "indexed": true,
          "internalType": "uint256",
          "name": "tokenId",
          "type": "uint256"
        }
      ],
      "name": "Transfer",
      "type": "event"
    },
    {
      "inputs": [
        {
          "internalType": "uint256",
          "name": "_quantity",
          "type": "uint256"
        }
      ],
      "name": "allowlistMint",
      "outputs": [],
      "stateMutability": "payable",
      "type": "function"
    },
    {
      "inputs": [
        {
          "internalType": "address",
          "name": "to",
          "type": "address"
        },
        {
          "internalType": "uint256",
          "name": "tokenId",
          "type": "uint256"
        }
      ],
      "name": "approve",
      "outputs": [],
      "stateMutability": "nonpayable",
      "type": "function"
    },
    {
      "inputs": [
        {
          "internalType": "address",
          "name": "owner",
          "type": "address"
        }
      ],
      "name": "balanceOf",
      "outputs": [
        {
          "internalType": "uint256",
          "name": "",
          "type": "uint256"
        }
      ],
      "stateMutability": "view",
      "type": "function"
    },
    {
      "inputs": [
        {
          "internalType": "string",
          "name": "tokenURI",
          "type": "string"
        }
      ],
      "name": "createToken",
      "outputs": [
        {
          "internalType": "uint256",
          "name": "",
          "type": "uint256"
        }
      ],
      "stateMutability": "nonpayable",
      "type": "function"
    },
    {
      "inputs": [],
      "name": "emitEvent",
      "outputs": [
        {
          "internalType": "uint256",
          "name": "",
          "type": "uint256"
        }
      ],
      "stateMutability": "payable",
      "type": "function"
    },
    {
      "inputs": [
        {
          "internalType": "uint256",
          "name": "tokenId",
          "type": "uint256"
        }
      ],
      "name": "getApproved",
      "outputs": [
        {
          "internalType": "address",
          "name": "",
          "type": "address"
        }
      ],
      "stateMutability": "view",
      "type": "function"
    },
    {
      "inputs": [
        {
          "internalType": "address",
          "name": "owner",
          "type": "address"
        },
        {
          "internalType": "address",
          "name": "operator",
          "type": "address"
        }
      ],
      "name": "isApprovedForAll",
      "outputs": [
        {
          "internalType": "bool",
          "name": "",
          "type": "bool"
        }
      ],
      "stateMutability": "view",
      "type": "function"
    },
    {
      "inputs": [],
      "name": "name",
      "outputs": [
        {
          "internalType": "string",
          "name": "",
          "type": "string"
        }
      ],
      "stateMutability": "view",
      "type": "function"
    },
    {
      "inputs": [
        {
          "internalType": "uint256",
          "name": "tokenId",
          "type": "uint256"
        }
      ],
      "name": "ownerOf",
      "outputs": [
        {
          "internalType": "address",
          "name": "",
          "type": "address"
        }
      ],
      "stateMutability": "view",
      "type": "function"
    },
    {
      "inputs": [
        {
          "internalType": "address",
          "name": "from",
          "type": "address"
        },
        {
          "internalType": "address",
          "name": "to",
          "type": "address"
        },
        {
          "internalType": "uint256",
          "name": "tokenId",
          "type": "uint256"
        }
      ],
      "name": "safeTransferFrom",
      "outputs": [],
      "stateMutability": "nonpayable",
      "type": "function"
    },
    {
      "inputs": [
        {
          "internalType": "address",
          "name": "from",
          "type": "address"
        },
        {
          "internalType": "address",
          "name": "to",
          "type": "address"
        },
        {
          "internalType": "uint256",
          "name": "tokenId",
          "type": "uint256"
        },
        {
          "internalType": "bytes",
          "name": "_data",
          "type": "bytes"
        }
      ],
      "name": "safeTransferFrom",
      "outputs": [],
      "stateMutability": "nonpayable",
      "type": "function"
    },
    {
      "inputs": [
        {
          "internalType": "address",
          "name": "operator",
          "type": "address"
        },
        {
          "internalType": "bool",
          "name": "approved",
          "type": "bool"
        }
      ],
      "name": "setApprovalForAll",
      "outputs": [],
      "stateMutability": "nonpayable",
      "type": "function"
    },
    {
      "inputs": [
        {
          "internalType": "bytes4",
          "name": "interfaceId",
          "type": "bytes4"
        }
      ],
      "name": "supportsInterface",
      "outputs": [
        {
          "internalType": "bool",
          "name": "",
          "type": "bool"
        }
      ],
      "stateMutability": "view",
      "type": "function"
    },
    {
      "inputs": [],
      "name": "symbol",
      "outputs": [
        {
          "internalType": "string",
          "name": "",
          "type": "string"
        }
      ],
      "stateMutability": "view",
      "type": "function"
    },
    {
      "inputs": [
        {
          "internalType": "uint256",
          "name": "tokenId",
          "type": "uint256"
        }
      ],
      "name": "tokenURI",
      "outputs": [
        {
          "internalType": "string",
          "name": "",
          "type": "string"
        }
      ],
      "stateMutability": "view",
      "type": "function"
    },
    {
      "inputs": [
        {
          "internalType": "address",
          "name": "from",
          "type": "address"
        },
        {
          "internalType": "address",
          "name": "to",
          "type": "address"
        },
        {
          "internalType": "uint256",
          "name": "tokenId",
          "type": "uint256"
        }
      ],
      "name": "transferFrom",
      "outputs": [],
      "stateMutability": "nonpayable",
      "type": "function"
    }
  ],
  "bytecode": "0x60806040523480156200001157600080fd5b506040518060400160405280600b81526020017f466163746f7279204e46540000000000000000000000000000000000000000008152506040518060400160405280600381526020017f46544e0000000000000000000000000000000000000000000000000000000000815250816000908051906020019062000096929190620000b8565b508060019080519060200190620000af929190620000b8565b505050620001cd565b828054620000c69062000197565b90600052602060002090601f016020900481019282620000ea576000855562000136565b82601f106200010557805160ff191683800117855562000136565b8280016001018555821562000136579182015b828111156200013557825182559160200191906001019062000118565b5b50905062000145919062000149565b5090565b5b80821115620001645760008160009055506001016200014a565b5090565b7f4e487b7100000000000000000000000000000000000000000000000000000000600052602260045260246000fd5b60006002820490506001821680620001b057607f821691505b60208210811415620001c757620001c662000168565b5b50919050565b612e2b80620001dd6000396000f3fe6080604052600436106100f35760003560e01c806370a082311161008a578063b88d4fde11610059578063b88d4fde14610341578063c180526a1461036a578063c87b56dd14610386578063e985e9c5146103c3576100f3565b806370a08231146102925780637b0cb839146102cf57806395d89b41146102ed578063a22cb46514610318576100f3565b806323b872dd116100c657806323b872dd146101c657806342842e0e146101ef57806345576f94146102185780636352211e14610255576100f3565b806301ffc9a7146100f857806306fdde0314610135578063081812fc14610160578063095ea7b31461019d575b600080fd5b34801561010457600080fd5b5061011f600480360381019061011a9190611b3f565b610400565b60405161012c9190611b87565b60405180910390f35b34801561014157600080fd5b5061014a6104e2565b6040516101579190611c3b565b60405180910390f35b34801561016c57600080fd5b5061018760048036038101906101829190611c93565b610574565b6040516101949190611d01565b60405180910390f35b3480156101a957600080fd5b506101c460048036038101906101bf9190611d48565b6105f9565b005b3480156101d257600080fd5b506101ed60048036038101906101e89190611d88565b610711565b005b3480156101fb57600080fd5b5061021660048036038101906102119190611d88565b610771565b005b34801561022457600080fd5b5061023f600480360381019061023a9190611f10565b610791565b60405161024c9190611f68565b60405180910390f35b34801561026157600080fd5b5061027c60048036038101906102779190611c93565b6107c8565b6040516102899190611d01565b60405180910390f35b34801561029e57600080fd5b506102b960048036038101906102b49190611f83565b61087a565b6040516102c69190611f68565b60405180910390f35b6102d7610932565b6040516102e49190611f68565b60405180910390f35b3480156102f957600080fd5b506103026109a7565b60405161030f9190611c3b565b60405180910390f35b34801561032457600080fd5b5061033f600480360381019061033a9190611fdc565b610a39565b005b34801561034d57600080fd5b50610368600480360381019061036391906120bd565b610a4f565b005b610384600480360381019061037f9190611c93565b610ab1565b005b34801561039257600080fd5b506103ad60048036038101906103a89190611c93565b610ad7565b6040516103ba9190611c3b565b60405180910390f35b3480156103cf57600080fd5b506103ea60048036038101906103e59190612140565b610c29565b6040516103f79190611b87565b60405180910390f35b60007f80ac58cd000000000000000000000000000000000000000000000000000000007bffffffffffffffffffffffffffffffffffffffffffffffffffffffff1916827bffffffffffffffffffffffffffffffffffffffffffffffffffffffff191614806104cb57507f5b5e139f000000000000000000000000000000000000000000000000000000007bffffffffffffffffffffffffffffffffffffffffffffffffffffffff1916827bffffffffffffffffffffffffffffffffffffffffffffffffffffffff1916145b806104db57506104da82610cbd565b5b9050919050565b6060600080546104f1906121af565b80601f016020809104026020016040519081016040528092919081815260200182805461051d906121af565b801561056a5780601f1061053f5761010080835404028352916020019161056a565b820191906000526020600020905b81548152906001019060200180831161054d57829003601f168201915b5050505050905090565b600061057f82610d27565b6105be576040517f08c379a00000000000000000000000000000000000000000000000000000000081526004016105b590612253565b60405180910390fd5b6004600083815260200190815260200160002060009054906101000a900473ffffffffffffffffffffffffffffffffffffffff169050919050565b6000610604826107c8565b90508073ffffffffffffffffffffffffffffffffffffffff168373ffffffffffffffffffffffffffffffffffffffff161415610675576040517f08c379a000000000000000000000000000000000000000000000000000000000815260040161066c906122e5565b60405180910390fd5b8073ffffffffffffffffffffffffffffffffffffffff16610694610d93565b73ffffffffffffffffffffffffffffffffffffffff1614806106c357506106c2816106bd610d93565b610c29565b5b610702576040517f08c379a00000000000000000000000000000000000000000000000000000000081526004016106f990612377565b60405180910390fd5b61070c8383610d9b565b505050565b61072261071c610d93565b82610e54565b610761576040517f08c379a000000000000000000000000000000000000000000000000000000000815260040161075890612409565b60405180910390fd5b61076c838383610f32565b505050565b61078c83838360405180602001604052806000815250610a4f565b505050565b600061079d6007611199565b60006107a960076111af565b90506107b533826111bd565b6107bf8184611397565b80915050919050565b6000806002600084815260200190815260200160002060009054906101000a900473ffffffffffffffffffffffffffffffffffffffff169050600073ffffffffffffffffffffffffffffffffffffffff168173ffffffffffffffffffffffffffffffffffffffff161415610871576040517f08c379a00000000000000000000000000000000000000000000000000000000081526004016108689061249b565b60405180910390fd5b80915050919050565b60008073ffffffffffffffffffffffffffffffffffffffff168273ffffffffffffffffffffffffffffffffffffffff1614156108eb576040517f08c379a00000000000000000000000000000000000000000000000000000000081526004016108e29061252d565b60405180910390fd5b600360008373ffffffffffffffffffffffffffffffffffffffff1673ffffffffffffffffffffffffffffffffffffffff168152602001908152602001600020549050919050565b60008063625b3cee90506000606490506000606490506000606490506000606490506000606490507f880fa85ac6969827fc8f6a2a8b236fc9789ece8c82b41b17d0865b747de1b9138587868686866040516109939695949392919061254d565b60405180910390a185965050505050505090565b6060600180546109b6906121af565b80601f01602080910402602001604051908101604052809291908181526020018280546109e2906121af565b8015610a2f5780601f10610a0457610100808354040283529160200191610a2f565b820191906000526020600020905b815481529060010190602001808311610a1257829003601f168201915b5050505050905090565b610a4b610a44610d93565b838361140b565b5050565b610a60610a5a610d93565b83610e54565b610a9f576040517f08c379a0000000000000000000000000000000000000000000000000000000008152600401610a9690612409565b60405180910390fd5b610aab84848484611578565b50505050565b610abb6007611199565b6000610ac760076111af565b9050610ad333826115d4565b5050565b6060610ae282610d27565b610b21576040517f08c379a0000000000000000000000000000000000000000000000000000000008152600401610b1890612620565b60405180910390fd5b6000600660008481526020019081526020016000208054610b41906121af565b80601f0160208091040260200160405190810160405280929190818152602001828054610b6d906121af565b8015610bba5780601f10610b8f57610100808354040283529160200191610bba565b820191906000526020600020905b815481529060010190602001808311610b9d57829003601f168201915b505050505090506000610bcb6115f2565b9050600081511415610be1578192505050610c24565b600082511115610c16578082604051602001610bfe92919061267c565b60405160208183030381529060405292505050610c24565b610c1f84611609565b925050505b919050565b6000600560008473ffffffffffffffffffffffffffffffffffffffff1673ffffffffffffffffffffffffffffffffffffffff16815260200190815260200160002060008373ffffffffffffffffffffffffffffffffffffffff1673ffffffffffffffffffffffffffffffffffffffff16815260200190815260200160002060009054906101000a900460ff16905092915050565b60007f01ffc9a7000000000000000000000000000000000000000000000000000000007bffffffffffffffffffffffffffffffffffffffffffffffffffffffff1916827bffffffffffffffffffffffffffffffffffffffffffffffffffffffff1916149050919050565b60008073ffffffffffffffffffffffffffffffffffffffff166002600084815260200190815260200160002060009054906101000a900473ffffffffffffffffffffffffffffffffffffffff1673ffffffffffffffffffffffffffffffffffffffff1614159050919050565b600033905090565b816004600083815260200190815260200160002060006101000a81548173ffffffffffffffffffffffffffffffffffffffff021916908373ffffffffffffffffffffffffffffffffffffffff160217905550808273ffffffffffffffffffffffffffffffffffffffff16610e0e836107c8565b73ffffffffffffffffffffffffffffffffffffffff167f8c5be1e5ebec7d5bd14f71427d1e84f3dd0314c0f7b2291e5b200ac8c7c3b92560405160405180910390a45050565b6000610e5f82610d27565b610e9e576040517f08c379a0000000000000000000000000000000000000000000000000000000008152600401610e9590612712565b60405180910390fd5b6000610ea9836107c8565b90508073ffffffffffffffffffffffffffffffffffffffff168473ffffffffffffffffffffffffffffffffffffffff161480610eeb5750610eea8185610c29565b5b80610f2957508373ffffffffffffffffffffffffffffffffffffffff16610f1184610574565b73ffffffffffffffffffffffffffffffffffffffff16145b91505092915050565b8273ffffffffffffffffffffffffffffffffffffffff16610f52826107c8565b73ffffffffffffffffffffffffffffffffffffffff1614610fa8576040517f08c379a0000000000000000000000000000000000000000000000000000000008152600401610f9f906127a4565b60405180910390fd5b600073ffffffffffffffffffffffffffffffffffffffff168273ffffffffffffffffffffffffffffffffffffffff161415611018576040517f08c379a000000000000000000000000000000000000000000000000000000000815260040161100f90612836565b60405180910390fd5b6110238383836116b0565b61102e600082610d9b565b6001600360008573ffffffffffffffffffffffffffffffffffffffff1673ffffffffffffffffffffffffffffffffffffffff168152602001908152602001600020600082825461107e9190612885565b925050819055506001600360008473ffffffffffffffffffffffffffffffffffffffff1673ffffffffffffffffffffffffffffffffffffffff16815260200190815260200160002060008282546110d591906128b9565b92505081905550816002600083815260200190815260200160002060006101000a81548173ffffffffffffffffffffffffffffffffffffffff021916908373ffffffffffffffffffffffffffffffffffffffff160217905550808273ffffffffffffffffffffffffffffffffffffffff168473ffffffffffffffffffffffffffffffffffffffff167fddf252ad1be2c89b69c2b068fc378daa952ba7f163c4a11628f55a4df523b3ef60405160405180910390a46111948383836116b5565b505050565b6001816000016000828254019250508190555050565b600081600001549050919050565b600073ffffffffffffffffffffffffffffffffffffffff168273ffffffffffffffffffffffffffffffffffffffff16141561122d576040517f08c379a00000000000000000000000000000000000000000000000000000000081526004016112249061295b565b60405180910390fd5b61123681610d27565b15611276576040517f08c379a000000000000000000000000000000000000000000000000000000000815260040161126d906129c7565b60405180910390fd5b611282600083836116b0565b6001600360008473ffffffffffffffffffffffffffffffffffffffff1673ffffffffffffffffffffffffffffffffffffffff16815260200190815260200160002060008282546112d291906128b9565b92505081905550816002600083815260200190815260200160002060006101000a81548173ffffffffffffffffffffffffffffffffffffffff021916908373ffffffffffffffffffffffffffffffffffffffff160217905550808273ffffffffffffffffffffffffffffffffffffffff16600073ffffffffffffffffffffffffffffffffffffffff167fddf252ad1be2c89b69c2b068fc378daa952ba7f163c4a11628f55a4df523b3ef60405160405180910390a4611393600083836116b5565b5050565b6113a082610d27565b6113df576040517f08c379a00000000000000000000000000000000000000000000000000000000081526004016113d690612a59565b60405180910390fd5b80600660008481526020019081526020016000209080519060200190611406929190611a30565b505050565b8173ffffffffffffffffffffffffffffffffffffffff168373ffffffffffffffffffffffffffffffffffffffff16141561147a576040517f08c379a000000000000000000000000000000000000000000000000000000000815260040161147190612ac5565b60405180910390fd5b80600560008573ffffffffffffffffffffffffffffffffffffffff1673ffffffffffffffffffffffffffffffffffffffff16815260200190815260200160002060008473ffffffffffffffffffffffffffffffffffffffff1673ffffffffffffffffffffffffffffffffffffffff16815260200190815260200160002060006101000a81548160ff0219169083151502179055508173ffffffffffffffffffffffffffffffffffffffff168373ffffffffffffffffffffffffffffffffffffffff167f17307eab39ab6107e8899845ad3d59bd9653f200f220920489ca2b5937696c318360405161156b9190611b87565b60405180910390a3505050565b611583848484610f32565b61158f848484846116ba565b6115ce576040517f08c379a00000000000000000000000000000000000000000000000000000000081526004016115c590612b57565b60405180910390fd5b50505050565b6115ee828260405180602001604052806000815250611851565b5050565b606060405180602001604052806000815250905090565b606061161482610d27565b611653576040517f08c379a000000000000000000000000000000000000000000000000000000000815260040161164a90612be9565b60405180910390fd5b600061165d6115f2565b9050600081511161167d57604051806020016040528060008152506116a8565b80611687846118ac565b60405160200161169892919061267c565b6040516020818303038152906040525b915050919050565b505050565b505050565b60006116db8473ffffffffffffffffffffffffffffffffffffffff16611a0d565b15611844578373ffffffffffffffffffffffffffffffffffffffff1663150b7a02611704610d93565b8786866040518563ffffffff1660e01b81526004016117269493929190612c5e565b602060405180830381600087803b15801561174057600080fd5b505af192505050801561177157506040513d601f19601f8201168201806040525081019061176e9190612cbf565b60015b6117f4573d80600081146117a1576040519150601f19603f3d011682016040523d82523d6000602084013e6117a6565b606091505b506000815114156117ec576040517f08c379a00000000000000000000000000000000000000000000000000000000081526004016117e390612b57565b60405180910390fd5b805181602001fd5b63150b7a0260e01b7bffffffffffffffffffffffffffffffffffffffffffffffffffffffff1916817bffffffffffffffffffffffffffffffffffffffffffffffffffffffff191614915050611849565b600190505b949350505050565b61185b83836111bd565b61186860008484846116ba565b6118a7576040517f08c379a000000000000000000000000000000000000000000000000000000000815260040161189e90612b57565b60405180910390fd5b505050565b606060008214156118f4576040518060400160405280600181526020017f30000000000000000000000000000000000000000000000000000000000000008152509050611a08565b600082905060005b6000821461192657808061190f90612cec565b915050600a8261191f9190612d64565b91506118fc565b60008167ffffffffffffffff81111561194257611941611de5565b5b6040519080825280601f01601f1916602001820160405280156119745781602001600182028036833780820191505090505b5090505b60008514611a015760018261198d9190612885565b9150600a8561199c9190612d95565b60306119a891906128b9565b60f81b8183815181106119be576119bd612dc6565b5b60200101907effffffffffffffffffffffffffffffffffffffffffffffffffffffffffffff1916908160001a905350600a856119fa9190612d64565b9450611978565b8093505050505b919050565b6000808273ffffffffffffffffffffffffffffffffffffffff163b119050919050565b828054611a3c906121af565b90600052602060002090601f016020900481019282611a5e5760008555611aa5565b82601f10611a7757805160ff1916838001178555611aa5565b82800160010185558215611aa5579182015b82811115611aa4578251825591602001919060010190611a89565b5b509050611ab29190611ab6565b5090565b5b80821115611acf576000816000905550600101611ab7565b5090565b6000604051905090565b600080fd5b600080fd5b60007fffffffff0000000000000000000000000000000000000000000000000000000082169050919050565b611b1c81611ae7565b8114611b2757600080fd5b50565b600081359050611b3981611b13565b92915050565b600060208284031215611b5557611b54611add565b5b6000611b6384828501611b2a565b91505092915050565b60008115159050919050565b611b8181611b6c565b82525050565b6000602082019050611b9c6000830184611b78565b92915050565b600081519050919050565b600082825260208201905092915050565b60005b83811015611bdc578082015181840152602081019050611bc1565b83811115611beb576000848401525b50505050565b6000601f19601f8301169050919050565b6000611c0d82611ba2565b611c178185611bad565b9350611c27818560208601611bbe565b611c3081611bf1565b840191505092915050565b60006020820190508181036000830152611c558184611c02565b905092915050565b6000819050919050565b611c7081611c5d565b8114611c7b57600080fd5b50565b600081359050611c8d81611c67565b92915050565b600060208284031215611ca957611ca8611add565b5b6000611cb784828501611c7e565b91505092915050565b600073ffffffffffffffffffffffffffffffffffffffff82169050919050565b6000611ceb82611cc0565b9050919050565b611cfb81611ce0565b82525050565b6000602082019050611d166000830184611cf2565b92915050565b611d2581611ce0565b8114611d3057600080fd5b50565b600081359050611d4281611d1c565b92915050565b60008060408385031215611d5f57611d5e611add565b5b6000611d6d85828601611d33565b9250506020611d7e85828601611c7e565b9150509250929050565b600080600060608486031215611da157611da0611add565b5b6000611daf86828701611d33565b9350506020611dc086828701611d33565b9250506040611dd186828701611c7e565b9150509250925092565b600080fd5b600080fd5b7f4e487b7100000000000000000000000000000000000000000000000000000000600052604160045260246000fd5b611e1d82611bf1565b810181811067ffffffffffffffff82111715611e3c57611e3b611de5565b5b80604052505050565b6000611e4f611ad3565b9050611e5b8282611e14565b919050565b600067ffffffffffffffff821115611e7b57611e7a611de5565b5b611e8482611bf1565b9050602081019050919050565b82818337600083830152505050565b6000611eb3611eae84611e60565b611e45565b905082815260208101848484011115611ecf57611ece611de0565b5b611eda848285611e91565b509392505050565b600082601f830112611ef757611ef6611ddb565b5b8135611f07848260208601611ea0565b91505092915050565b600060208284031215611f2657611f25611add565b5b600082013567ffffffffffffffff811115611f4457611f43611ae2565b5b611f5084828501611ee2565b91505092915050565b611f6281611c5d565b82525050565b6000602082019050611f7d6000830184611f59565b92915050565b600060208284031215611f9957611f98611add565b5b6000611fa784828501611d33565b91505092915050565b611fb981611b6c565b8114611fc457600080fd5b50565b600081359050611fd681611fb0565b92915050565b60008060408385031215611ff357611ff2611add565b5b600061200185828601611d33565b925050602061201285828601611fc7565b9150509250929050565b600067ffffffffffffffff82111561203757612036611de5565b5b61204082611bf1565b9050602081019050919050565b600061206061205b8461201c565b611e45565b90508281526020810184848401111561207c5761207b611de0565b5b612087848285611e91565b509392505050565b600082601f8301126120a4576120a3611ddb565b5b81356120b484826020860161204d565b91505092915050565b600080600080608085870312156120d7576120d6611add565b5b60006120e587828801611d33565b94505060206120f687828801611d33565b935050604061210787828801611c7e565b925050606085013567ffffffffffffffff81111561212857612127611ae2565b5b6121348782880161208f565b91505092959194509250565b6000806040838503121561215757612156611add565b5b600061216585828601611d33565b925050602061217685828601611d33565b9150509250929050565b7f4e487b7100000000000000000000000000000000000000000000000000000000600052602260045260246000fd5b600060028204905060018216806121c757607f821691505b602082108114156121db576121da612180565b5b50919050565b7f4552433732313a20617070726f76656420717565727920666f72206e6f6e657860008201527f697374656e7420746f6b656e0000000000000000000000000000000000000000602082015250565b600061223d602c83611bad565b9150612248826121e1565b604082019050919050565b6000602082019050818103600083015261226c81612230565b9050919050565b7f4552433732313a20617070726f76616c20746f2063757272656e74206f776e6560008201527f7200000000000000000000000000000000000000000000000000000000000000602082015250565b60006122cf602183611bad565b91506122da82612273565b604082019050919050565b600060208201905081810360008301526122fe816122c2565b9050919050565b7f4552433732313a20617070726f76652063616c6c6572206973206e6f74206f7760008201527f6e6572206e6f7220617070726f76656420666f7220616c6c0000000000000000602082015250565b6000612361603883611bad565b915061236c82612305565b604082019050919050565b6000602082019050818103600083015261239081612354565b9050919050565b7f4552433732313a207472616e736665722063616c6c6572206973206e6f74206f60008201527f776e6572206e6f7220617070726f766564000000000000000000000000000000602082015250565b60006123f3603183611bad565b91506123fe82612397565b604082019050919050565b60006020820190508181036000830152612422816123e6565b9050919050565b7f4552433732313a206f776e657220717565727920666f72206e6f6e657869737460008201527f656e7420746f6b656e0000000000000000000000000000000000000000000000602082015250565b6000612485602983611bad565b915061249082612429565b604082019050919050565b600060208201905081810360008301526124b481612478565b9050919050565b7f4552433732313a2062616c616e636520717565727920666f7220746865207a6560008201527f726f206164647265737300000000000000000000000000000000000000000000602082015250565b6000612517602a83611bad565b9150612522826124bb565b604082019050919050565b600060208201905081810360008301526125468161250a565b9050919050565b600060c0820190506125626000830189611f59565b61256f6020830188611f59565b61257c6040830187611f59565b6125896060830186611f59565b6125966080830185611f59565b6125a360a0830184611f59565b979650505050505050565b7f45524337323155524953746f726167653a2055524920717565727920666f722060008201527f6e6f6e6578697374656e7420746f6b656e000000000000000000000000000000602082015250565b600061260a603183611bad565b9150612615826125ae565b604082019050919050565b60006020820190508181036000830152612639816125fd565b9050919050565b600081905092915050565b600061265682611ba2565b6126608185612640565b9350612670818560208601611bbe565b80840191505092915050565b6000612688828561264b565b9150612694828461264b565b91508190509392505050565b7f4552433732313a206f70657261746f7220717565727920666f72206e6f6e657860008201527f697374656e7420746f6b656e0000000000000000000000000000000000000000602082015250565b60006126fc602c83611bad565b9150612707826126a0565b604082019050919050565b6000602082019050818103600083015261272b816126ef565b9050919050565b7f4552433732313a207472616e736665722066726f6d20696e636f72726563742060008201527f6f776e6572000000000000000000000000000000000000000000000000000000602082015250565b600061278e602583611bad565b915061279982612732565b604082019050919050565b600060208201905081810360008301526127bd81612781565b9050919050565b7f4552433732313a207472616e7366657220746f20746865207a65726f2061646460008201527f7265737300000000000000000000000000000000000000000000000000000000602082015250565b6000612820602483611bad565b915061282b826127c4565b604082019050919050565b6000602082019050818103600083015261284f81612813565b9050919050565b7f4e487b7100000000000000000000000000000000000000000000000000000000600052601160045260246000fd5b600061289082611c5d565b915061289b83611c5d565b9250828210156128ae576128ad612856565b5b828203905092915050565b60006128c482611c5d565b91506128cf83611c5d565b9250827fffffffffffffffffffffffffffffffffffffffffffffffffffffffffffffffff0382111561290457612903612856565b5b828201905092915050565b7f4552433732313a206d696e7420746f20746865207a65726f2061646472657373600082015250565b6000612945602083611bad565b91506129508261290f565b602082019050919050565b6000602082019050818103600083015261297481612938565b9050919050565b7f4552433732313a20746f6b656e20616c7265616479206d696e74656400000000600082015250565b60006129b1601c83611bad565b91506129bc8261297b565b602082019050919050565b600060208201905081810360008301526129e0816129a4565b9050919050565b7f45524337323155524953746f726167653a2055524920736574206f66206e6f6e60008201527f6578697374656e7420746f6b656e000000000000000000000000000000000000602082015250565b6000612a43602e83611bad565b9150612a4e826129e7565b604082019050919050565b60006020820190508181036000830152612a7281612a36565b9050919050565b7f4552433732313a20617070726f766520746f2063616c6c657200000000000000600082015250565b6000612aaf601983611bad565b9150612aba82612a79565b602082019050919050565b60006020820190508181036000830152612ade81612aa2565b9050919050565b7f4552433732313a207472616e7366657220746f206e6f6e20455243373231526560008201527f63656976657220696d706c656d656e7465720000000000000000000000000000602082015250565b6000612b41603283611bad565b9150612b4c82612ae5565b604082019050919050565b60006020820190508181036000830152612b7081612b34565b9050919050565b7f4552433732314d657461646174613a2055524920717565727920666f72206e6f60008201527f6e6578697374656e7420746f6b656e0000000000000000000000000000000000602082015250565b6000612bd3602f83611bad565b9150612bde82612b77565b604082019050919050565b60006020820190508181036000830152612c0281612bc6565b9050919050565b600081519050919050565b600082825260208201905092915050565b6000612c3082612c09565b612c3a8185612c14565b9350612c4a818560208601611bbe565b612c5381611bf1565b840191505092915050565b6000608082019050612c736000830187611cf2565b612c806020830186611cf2565b612c8d6040830185611f59565b8181036060830152612c9f8184612c25565b905095945050505050565b600081519050612cb981611b13565b92915050565b600060208284031215612cd557612cd4611add565b5b6000612ce384828501612caa565b91505092915050565b6000612cf782611c5d565b91507fffffffffffffffffffffffffffffffffffffffffffffffffffffffffffffffff821415612d2a57612d29612856565b5b600182019050919050565b7f4e487b7100000000000000000000000000000000000000000000000000000000600052601260045260246000fd5b6000612d6f82611c5d565b9150612d7a83611c5d565b925082612d8a57612d89612d35565b5b828204905092915050565b6000612da082611c5d565b9150612dab83611c5d565b925082612dbb57612dba612d35565b5b828206905092915050565b7f4e487b7100000000000000000000000000000000000000000000000000000000600052603260045260246000fdfea26469706673582212208b7396d7630ff67d9f8e4748b43ab0cc6b37fe94dffeaadaba020d0b6f9719d364736f6c63430008090033",
  "linkReferences": {},
  "deployedLinkReferences": {}
}