{
  "_format": "hh-sol-artifact-1",
  "contractName": "FactoryNFT",
  "sourceName": "contracts/FactoryNFT.sol",
  "abi": [
    {
      "inputs": [],
      "stateMutability": "nonpayable",
      "type": "constructor"
    },
    {
      "anonymous": false,
      "inputs": [
        {
          "indexed": true,
          "internalType": "address",
          "name": "owner",
          "type": "address"
        },
        {
          "indexed": true,
          "internalType": "address",
          "name": "approved",
          "type": "address"
        },
        {
          "indexed": true,
          "internalType": "uint256",
          "name": "tokenId",
          "type": "uint256"
        }
      ],
      "name": "Approval",
      "type": "event"
    },
    {
      "anonymous": false,
      "inputs": [
        {
          "indexed": true,
          "internalType": "address",
          "name": "owner",
          "type": "address"
        },
        {
          "indexed": true,
          "internalType": "address",
          "name": "operator",
          "type": "address"
        },
        {
          "indexed": false,
          "internalType": "bool",
          "name": "approved",
          "type": "bool"
        }
      ],
      "name": "ApprovalForAll",
      "type": "event"
    },
    {
      "anonymous": false,
      "inputs": [
        {
          "indexed": false,
          "internalType": "uint256",
          "name": "allowlistStartTime",
          "type": "uint256"
        }
      ],
      "name": "Initialized",
      "type": "event"
    },
    {
      "anonymous": false,
      "inputs": [
        {
          "indexed": true,
          "internalType": "address",
          "name": "from",
          "type": "address"
        },
        {
          "indexed": true,
          "internalType": "address",
          "name": "to",
          "type": "address"
        },
        {
          "indexed": true,
          "internalType": "uint256",
          "name": "tokenId",
          "type": "uint256"
        }
      ],
      "name": "Transfer",
      "type": "event"
    },
    {
      "inputs": [
        {
          "internalType": "address",
          "name": "to",
          "type": "address"
        },
        {
          "internalType": "uint256",
          "name": "tokenId",
          "type": "uint256"
        }
      ],
      "name": "approve",
      "outputs": [],
      "stateMutability": "nonpayable",
      "type": "function"
    },
    {
      "inputs": [
        {
          "internalType": "address",
          "name": "owner",
          "type": "address"
        }
      ],
      "name": "balanceOf",
      "outputs": [
        {
          "internalType": "uint256",
          "name": "",
          "type": "uint256"
        }
      ],
      "stateMutability": "view",
      "type": "function"
    },
    {
      "inputs": [
        {
          "internalType": "string",
          "name": "tokenURI",
          "type": "string"
        }
      ],
      "name": "createToken",
      "outputs": [
        {
          "internalType": "uint256",
          "name": "",
          "type": "uint256"
        }
      ],
      "stateMutability": "nonpayable",
      "type": "function"
    },
    {
      "inputs": [],
      "name": "emitEvent",
      "outputs": [
        {
          "internalType": "uint256",
          "name": "",
          "type": "uint256"
        }
      ],
      "stateMutability": "payable",
      "type": "function"
    },
    {
      "inputs": [
        {
          "internalType": "uint256",
          "name": "tokenId",
          "type": "uint256"
        }
      ],
      "name": "getApproved",
      "outputs": [
        {
          "internalType": "address",
          "name": "",
          "type": "address"
        }
      ],
      "stateMutability": "view",
      "type": "function"
    },
    {
      "inputs": [
        {
          "internalType": "address",
          "name": "owner",
          "type": "address"
        },
        {
          "internalType": "address",
          "name": "operator",
          "type": "address"
        }
      ],
      "name": "isApprovedForAll",
      "outputs": [
        {
          "internalType": "bool",
          "name": "",
          "type": "bool"
        }
      ],
      "stateMutability": "view",
      "type": "function"
    },
    {
      "inputs": [],
      "name": "mint",
      "outputs": [],
      "stateMutability": "payable",
      "type": "function"
    },
    {
      "inputs": [],
      "name": "name",
      "outputs": [
        {
          "internalType": "string",
          "name": "",
          "type": "string"
        }
      ],
      "stateMutability": "view",
      "type": "function"
    },
    {
      "inputs": [
        {
          "internalType": "uint256",
          "name": "tokenId",
          "type": "uint256"
        }
      ],
      "name": "ownerOf",
      "outputs": [
        {
          "internalType": "address",
          "name": "",
          "type": "address"
        }
      ],
      "stateMutability": "view",
      "type": "function"
    },
    {
      "inputs": [
        {
          "internalType": "address",
          "name": "from",
          "type": "address"
        },
        {
          "internalType": "address",
          "name": "to",
          "type": "address"
        },
        {
          "internalType": "uint256",
          "name": "tokenId",
          "type": "uint256"
        }
      ],
      "name": "safeTransferFrom",
      "outputs": [],
      "stateMutability": "nonpayable",
      "type": "function"
    },
    {
      "inputs": [
        {
          "internalType": "address",
          "name": "from",
          "type": "address"
        },
        {
          "internalType": "address",
          "name": "to",
          "type": "address"
        },
        {
          "internalType": "uint256",
          "name": "tokenId",
          "type": "uint256"
        },
        {
          "internalType": "bytes",
          "name": "_data",
          "type": "bytes"
        }
      ],
      "name": "safeTransferFrom",
      "outputs": [],
      "stateMutability": "nonpayable",
      "type": "function"
    },
    {
      "inputs": [
        {
          "internalType": "address",
          "name": "operator",
          "type": "address"
        },
        {
          "internalType": "bool",
          "name": "approved",
          "type": "bool"
        }
      ],
      "name": "setApprovalForAll",
      "outputs": [],
      "stateMutability": "nonpayable",
      "type": "function"
    },
    {
      "inputs": [
        {
          "internalType": "bytes4",
          "name": "interfaceId",
          "type": "bytes4"
        }
      ],
      "name": "supportsInterface",
      "outputs": [
        {
          "internalType": "bool",
          "name": "",
          "type": "bool"
        }
      ],
      "stateMutability": "view",
      "type": "function"
    },
    {
      "inputs": [],
      "name": "symbol",
      "outputs": [
        {
          "internalType": "string",
          "name": "",
          "type": "string"
        }
      ],
      "stateMutability": "view",
      "type": "function"
    },
    {
      "inputs": [
        {
          "internalType": "uint256",
          "name": "tokenId",
          "type": "uint256"
        }
      ],
      "name": "tokenURI",
      "outputs": [
        {
          "internalType": "string",
          "name": "",
          "type": "string"
        }
      ],
      "stateMutability": "view",
      "type": "function"
    },
    {
      "inputs": [
        {
          "internalType": "address",
          "name": "from",
          "type": "address"
        },
        {
          "internalType": "address",
          "name": "to",
          "type": "address"
        },
        {
          "internalType": "uint256",
          "name": "tokenId",
          "type": "uint256"
        }
      ],
      "name": "transferFrom",
      "outputs": [],
      "stateMutability": "nonpayable",
      "type": "function"
    }
  ],
  "bytecode": "0x60806040523480156200001157600080fd5b506040518060400160405280600b81526020017f466163746f7279204e46540000000000000000000000000000000000000000008152506040518060400160405280600381526020017f46544e0000000000000000000000000000000000000000000000000000000000815250816000908051906020019062000096929190620000b8565b508060019080519060200190620000af929190620000b8565b505050620001cd565b828054620000c69062000197565b90600052602060002090601f016020900481019282620000ea576000855562000136565b82601f106200010557805160ff191683800117855562000136565b8280016001018555821562000136579182015b828111156200013557825182559160200191906001019062000118565b5b50905062000145919062000149565b5090565b5b80821115620001645760008160009055506001016200014a565b5090565b7f4e487b7100000000000000000000000000000000000000000000000000000000600052602260045260246000fd5b60006002820490506001821680620001b057607f821691505b60208210811415620001c757620001c662000168565b5b50919050565b612d8780620001dd6000396000f3fe6080604052600436106100f35760003560e01c80636352211e1161008a578063a22cb46511610059578063a22cb46514610322578063b88d4fde1461034b578063c87b56dd14610374578063e985e9c5146103b1576100f3565b80636352211e1461025f57806370a082311461029c5780637b0cb839146102d957806395d89b41146102f7576100f3565b80631249c58b116100c65780631249c58b146101c657806323b872dd146101d057806342842e0e146101f957806345576f9414610222576100f3565b806301ffc9a7146100f857806306fdde0314610135578063081812fc14610160578063095ea7b31461019d575b600080fd5b34801561010457600080fd5b5061011f600480360381019061011a9190611afc565b6103ee565b60405161012c9190611b44565b60405180910390f35b34801561014157600080fd5b5061014a6104d0565b6040516101579190611bf8565b60405180910390f35b34801561016c57600080fd5b5061018760048036038101906101829190611c50565b610562565b6040516101949190611cbe565b60405180910390f35b3480156101a957600080fd5b506101c460048036038101906101bf9190611d05565b6105e7565b005b6101ce6106ff565b005b3480156101dc57600080fd5b506101f760048036038101906101f29190611d45565b610724565b005b34801561020557600080fd5b50610220600480360381019061021b9190611d45565b610784565b005b34801561022e57600080fd5b5061024960048036038101906102449190611ecd565b6107a4565b6040516102569190611f25565b60405180910390f35b34801561026b57600080fd5b5061028660048036038101906102819190611c50565b6107db565b6040516102939190611cbe565b60405180910390f35b3480156102a857600080fd5b506102c360048036038101906102be9190611f40565b61088d565b6040516102d09190611f25565b60405180910390f35b6102e1610945565b6040516102ee9190611f25565b60405180910390f35b34801561030357600080fd5b5061030c61098a565b6040516103199190611bf8565b60405180910390f35b34801561032e57600080fd5b5061034960048036038101906103449190611f99565b610a1c565b005b34801561035757600080fd5b50610372600480360381019061036d919061207a565b610a32565b005b34801561038057600080fd5b5061039b60048036038101906103969190611c50565b610a94565b6040516103a89190611bf8565b60405180910390f35b3480156103bd57600080fd5b506103d860048036038101906103d391906120fd565b610be6565b6040516103e59190611b44565b60405180910390f35b60007f80ac58cd000000000000000000000000000000000000000000000000000000007bffffffffffffffffffffffffffffffffffffffffffffffffffffffff1916827bffffffffffffffffffffffffffffffffffffffffffffffffffffffff191614806104b957507f5b5e139f000000000000000000000000000000000000000000000000000000007bffffffffffffffffffffffffffffffffffffffffffffffffffffffff1916827bffffffffffffffffffffffffffffffffffffffffffffffffffffffff1916145b806104c957506104c882610c7a565b5b9050919050565b6060600080546104df9061216c565b80601f016020809104026020016040519081016040528092919081815260200182805461050b9061216c565b80156105585780601f1061052d57610100808354040283529160200191610558565b820191906000526020600020905b81548152906001019060200180831161053b57829003601f168201915b5050505050905090565b600061056d82610ce4565b6105ac576040517f08c379a00000000000000000000000000000000000000000000000000000000081526004016105a390612210565b60405180910390fd5b6004600083815260200190815260200160002060009054906101000a900473ffffffffffffffffffffffffffffffffffffffff169050919050565b60006105f2826107db565b90508073ffffffffffffffffffffffffffffffffffffffff168373ffffffffffffffffffffffffffffffffffffffff161415610663576040517f08c379a000000000000000000000000000000000000000000000000000000000815260040161065a906122a2565b60405180910390fd5b8073ffffffffffffffffffffffffffffffffffffffff16610682610d50565b73ffffffffffffffffffffffffffffffffffffffff1614806106b157506106b0816106ab610d50565b610be6565b5b6106f0576040517f08c379a00000000000000000000000000000000000000000000000000000000081526004016106e790612334565b60405180910390fd5b6106fa8383610d58565b505050565b6107096007610e11565b60006107156007610e27565b90506107213382610e35565b50565b61073561072f610d50565b82610e53565b610774576040517f08c379a000000000000000000000000000000000000000000000000000000000815260040161076b906123c6565b60405180910390fd5b61077f838383610f31565b505050565b61079f83838360405180602001604052806000815250610a32565b505050565b60006107b06007610e11565b60006107bc6007610e27565b90506107c83382611198565b6107d28184611372565b80915050919050565b6000806002600084815260200190815260200160002060009054906101000a900473ffffffffffffffffffffffffffffffffffffffff169050600073ffffffffffffffffffffffffffffffffffffffff168173ffffffffffffffffffffffffffffffffffffffff161415610884576040517f08c379a000000000000000000000000000000000000000000000000000000000815260040161087b90612458565b60405180910390fd5b80915050919050565b60008073ffffffffffffffffffffffffffffffffffffffff168273ffffffffffffffffffffffffffffffffffffffff1614156108fe576040517f08c379a00000000000000000000000000000000000000000000000000000000081526004016108f5906124ea565b60405180910390fd5b600360008373ffffffffffffffffffffffffffffffffffffffff1673ffffffffffffffffffffffffffffffffffffffff168152602001908152602001600020549050919050565b600080606490507fbe9b076dc5b65990cca9dd9d7366682482e7817a6f6bc7f4faf4dc32af497f328160405161097b9190611f25565b60405180910390a18091505090565b6060600180546109999061216c565b80601f01602080910402602001604051908101604052809291908181526020018280546109c59061216c565b8015610a125780601f106109e757610100808354040283529160200191610a12565b820191906000526020600020905b8154815290600101906020018083116109f557829003601f168201915b5050505050905090565b610a2e610a27610d50565b83836113e6565b5050565b610a43610a3d610d50565b83610e53565b610a82576040517f08c379a0000000000000000000000000000000000000000000000000000000008152600401610a79906123c6565b60405180910390fd5b610a8e84848484611553565b50505050565b6060610a9f82610ce4565b610ade576040517f08c379a0000000000000000000000000000000000000000000000000000000008152600401610ad59061257c565b60405180910390fd5b6000600660008481526020019081526020016000208054610afe9061216c565b80601f0160208091040260200160405190810160405280929190818152602001828054610b2a9061216c565b8015610b775780601f10610b4c57610100808354040283529160200191610b77565b820191906000526020600020905b815481529060010190602001808311610b5a57829003601f168201915b505050505090506000610b886115af565b9050600081511415610b9e578192505050610be1565b600082511115610bd3578082604051602001610bbb9291906125d8565b60405160208183030381529060405292505050610be1565b610bdc846115c6565b925050505b919050565b6000600560008473ffffffffffffffffffffffffffffffffffffffff1673ffffffffffffffffffffffffffffffffffffffff16815260200190815260200160002060008373ffffffffffffffffffffffffffffffffffffffff1673ffffffffffffffffffffffffffffffffffffffff16815260200190815260200160002060009054906101000a900460ff16905092915050565b60007f01ffc9a7000000000000000000000000000000000000000000000000000000007bffffffffffffffffffffffffffffffffffffffffffffffffffffffff1916827bffffffffffffffffffffffffffffffffffffffffffffffffffffffff1916149050919050565b60008073ffffffffffffffffffffffffffffffffffffffff166002600084815260200190815260200160002060009054906101000a900473ffffffffffffffffffffffffffffffffffffffff1673ffffffffffffffffffffffffffffffffffffffff1614159050919050565b600033905090565b816004600083815260200190815260200160002060006101000a81548173ffffffffffffffffffffffffffffffffffffffff021916908373ffffffffffffffffffffffffffffffffffffffff160217905550808273ffffffffffffffffffffffffffffffffffffffff16610dcb836107db565b73ffffffffffffffffffffffffffffffffffffffff167f8c5be1e5ebec7d5bd14f71427d1e84f3dd0314c0f7b2291e5b200ac8c7c3b92560405160405180910390a45050565b6001816000016000828254019250508190555050565b600081600001549050919050565b610e4f82826040518060200160405280600081525061166d565b5050565b6000610e5e82610ce4565b610e9d576040517f08c379a0000000000000000000000000000000000000000000000000000000008152600401610e949061266e565b60405180910390fd5b6000610ea8836107db565b90508073ffffffffffffffffffffffffffffffffffffffff168473ffffffffffffffffffffffffffffffffffffffff161480610eea5750610ee98185610be6565b5b80610f2857508373ffffffffffffffffffffffffffffffffffffffff16610f1084610562565b73ffffffffffffffffffffffffffffffffffffffff16145b91505092915050565b8273ffffffffffffffffffffffffffffffffffffffff16610f51826107db565b73ffffffffffffffffffffffffffffffffffffffff1614610fa7576040517f08c379a0000000000000000000000000000000000000000000000000000000008152600401610f9e90612700565b60405180910390fd5b600073ffffffffffffffffffffffffffffffffffffffff168273ffffffffffffffffffffffffffffffffffffffff161415611017576040517f08c379a000000000000000000000000000000000000000000000000000000000815260040161100e90612792565b60405180910390fd5b6110228383836116c8565b61102d600082610d58565b6001600360008573ffffffffffffffffffffffffffffffffffffffff1673ffffffffffffffffffffffffffffffffffffffff168152602001908152602001600020600082825461107d91906127e1565b925050819055506001600360008473ffffffffffffffffffffffffffffffffffffffff1673ffffffffffffffffffffffffffffffffffffffff16815260200190815260200160002060008282546110d49190612815565b92505081905550816002600083815260200190815260200160002060006101000a81548173ffffffffffffffffffffffffffffffffffffffff021916908373ffffffffffffffffffffffffffffffffffffffff160217905550808273ffffffffffffffffffffffffffffffffffffffff168473ffffffffffffffffffffffffffffffffffffffff167fddf252ad1be2c89b69c2b068fc378daa952ba7f163c4a11628f55a4df523b3ef60405160405180910390a46111938383836116cd565b505050565b600073ffffffffffffffffffffffffffffffffffffffff168273ffffffffffffffffffffffffffffffffffffffff161415611208576040517f08c379a00000000000000000000000000000000000000000000000000000000081526004016111ff906128b7565b60405180910390fd5b61121181610ce4565b15611251576040517f08c379a000000000000000000000000000000000000000000000000000000000815260040161124890612923565b60405180910390fd5b61125d600083836116c8565b6001600360008473ffffffffffffffffffffffffffffffffffffffff1673ffffffffffffffffffffffffffffffffffffffff16815260200190815260200160002060008282546112ad9190612815565b92505081905550816002600083815260200190815260200160002060006101000a81548173ffffffffffffffffffffffffffffffffffffffff021916908373ffffffffffffffffffffffffffffffffffffffff160217905550808273ffffffffffffffffffffffffffffffffffffffff16600073ffffffffffffffffffffffffffffffffffffffff167fddf252ad1be2c89b69c2b068fc378daa952ba7f163c4a11628f55a4df523b3ef60405160405180910390a461136e600083836116cd565b5050565b61137b82610ce4565b6113ba576040517f08c379a00000000000000000000000000000000000000000000000000000000081526004016113b1906129b5565b60405180910390fd5b806006600084815260200190815260200160002090805190602001906113e19291906119ed565b505050565b8173ffffffffffffffffffffffffffffffffffffffff168373ffffffffffffffffffffffffffffffffffffffff161415611455576040517f08c379a000000000000000000000000000000000000000000000000000000000815260040161144c90612a21565b60405180910390fd5b80600560008573ffffffffffffffffffffffffffffffffffffffff1673ffffffffffffffffffffffffffffffffffffffff16815260200190815260200160002060008473ffffffffffffffffffffffffffffffffffffffff1673ffffffffffffffffffffffffffffffffffffffff16815260200190815260200160002060006101000a81548160ff0219169083151502179055508173ffffffffffffffffffffffffffffffffffffffff168373ffffffffffffffffffffffffffffffffffffffff167f17307eab39ab6107e8899845ad3d59bd9653f200f220920489ca2b5937696c31836040516115469190611b44565b60405180910390a3505050565b61155e848484610f31565b61156a848484846116d2565b6115a9576040517f08c379a00000000000000000000000000000000000000000000000000000000081526004016115a090612ab3565b60405180910390fd5b50505050565b606060405180602001604052806000815250905090565b60606115d182610ce4565b611610576040517f08c379a000000000000000000000000000000000000000000000000000000000815260040161160790612b45565b60405180910390fd5b600061161a6115af565b9050600081511161163a5760405180602001604052806000815250611665565b8061164484611869565b6040516020016116559291906125d8565b6040516020818303038152906040525b915050919050565b6116778383611198565b61168460008484846116d2565b6116c3576040517f08c379a00000000000000000000000000000000000000000000000000000000081526004016116ba90612ab3565b60405180910390fd5b505050565b505050565b505050565b60006116f38473ffffffffffffffffffffffffffffffffffffffff166119ca565b1561185c578373ffffffffffffffffffffffffffffffffffffffff1663150b7a0261171c610d50565b8786866040518563ffffffff1660e01b815260040161173e9493929190612bba565b602060405180830381600087803b15801561175857600080fd5b505af192505050801561178957506040513d601f19601f820116820180604052508101906117869190612c1b565b60015b61180c573d80600081146117b9576040519150601f19603f3d011682016040523d82523d6000602084013e6117be565b606091505b50600081511415611804576040517f08c379a00000000000000000000000000000000000000000000000000000000081526004016117fb90612ab3565b60405180910390fd5b805181602001fd5b63150b7a0260e01b7bffffffffffffffffffffffffffffffffffffffffffffffffffffffff1916817bffffffffffffffffffffffffffffffffffffffffffffffffffffffff191614915050611861565b600190505b949350505050565b606060008214156118b1576040518060400160405280600181526020017f300000000000000000000000000000000000000000000000000000000000000081525090506119c5565b600082905060005b600082146118e35780806118cc90612c48565b915050600a826118dc9190612cc0565b91506118b9565b60008167ffffffffffffffff8111156118ff576118fe611da2565b5b6040519080825280601f01601f1916602001820160405280156119315781602001600182028036833780820191505090505b5090505b600085146119be5760018261194a91906127e1565b9150600a856119599190612cf1565b60306119659190612815565b60f81b81838151811061197b5761197a612d22565b5b60200101907effffffffffffffffffffffffffffffffffffffffffffffffffffffffffffff1916908160001a905350600a856119b79190612cc0565b9450611935565b8093505050505b919050565b6000808273ffffffffffffffffffffffffffffffffffffffff163b119050919050565b8280546119f99061216c565b90600052602060002090601f016020900481019282611a1b5760008555611a62565b82601f10611a3457805160ff1916838001178555611a62565b82800160010185558215611a62579182015b82811115611a61578251825591602001919060010190611a46565b5b509050611a6f9190611a73565b5090565b5b80821115611a8c576000816000905550600101611a74565b5090565b6000604051905090565b600080fd5b600080fd5b60007fffffffff0000000000000000000000000000000000000000000000000000000082169050919050565b611ad981611aa4565b8114611ae457600080fd5b50565b600081359050611af681611ad0565b92915050565b600060208284031215611b1257611b11611a9a565b5b6000611b2084828501611ae7565b91505092915050565b60008115159050919050565b611b3e81611b29565b82525050565b6000602082019050611b596000830184611b35565b92915050565b600081519050919050565b600082825260208201905092915050565b60005b83811015611b99578082015181840152602081019050611b7e565b83811115611ba8576000848401525b50505050565b6000601f19601f8301169050919050565b6000611bca82611b5f565b611bd48185611b6a565b9350611be4818560208601611b7b565b611bed81611bae565b840191505092915050565b60006020820190508181036000830152611c128184611bbf565b905092915050565b6000819050919050565b611c2d81611c1a565b8114611c3857600080fd5b50565b600081359050611c4a81611c24565b92915050565b600060208284031215611c6657611c65611a9a565b5b6000611c7484828501611c3b565b91505092915050565b600073ffffffffffffffffffffffffffffffffffffffff82169050919050565b6000611ca882611c7d565b9050919050565b611cb881611c9d565b82525050565b6000602082019050611cd36000830184611caf565b92915050565b611ce281611c9d565b8114611ced57600080fd5b50565b600081359050611cff81611cd9565b92915050565b60008060408385031215611d1c57611d1b611a9a565b5b6000611d2a85828601611cf0565b9250506020611d3b85828601611c3b565b9150509250929050565b600080600060608486031215611d5e57611d5d611a9a565b5b6000611d6c86828701611cf0565b9350506020611d7d86828701611cf0565b9250506040611d8e86828701611c3b565b9150509250925092565b600080fd5b600080fd5b7f4e487b7100000000000000000000000000000000000000000000000000000000600052604160045260246000fd5b611dda82611bae565b810181811067ffffffffffffffff82111715611df957611df8611da2565b5b80604052505050565b6000611e0c611a90565b9050611e188282611dd1565b919050565b600067ffffffffffffffff821115611e3857611e37611da2565b5b611e4182611bae565b9050602081019050919050565b82818337600083830152505050565b6000611e70611e6b84611e1d565b611e02565b905082815260208101848484011115611e8c57611e8b611d9d565b5b611e97848285611e4e565b509392505050565b600082601f830112611eb457611eb3611d98565b5b8135611ec4848260208601611e5d565b91505092915050565b600060208284031215611ee357611ee2611a9a565b5b600082013567ffffffffffffffff811115611f0157611f00611a9f565b5b611f0d84828501611e9f565b91505092915050565b611f1f81611c1a565b82525050565b6000602082019050611f3a6000830184611f16565b92915050565b600060208284031215611f5657611f55611a9a565b5b6000611f6484828501611cf0565b91505092915050565b611f7681611b29565b8114611f8157600080fd5b50565b600081359050611f9381611f6d565b92915050565b60008060408385031215611fb057611faf611a9a565b5b6000611fbe85828601611cf0565b9250506020611fcf85828601611f84565b9150509250929050565b600067ffffffffffffffff821115611ff457611ff3611da2565b5b611ffd82611bae565b9050602081019050919050565b600061201d61201884611fd9565b611e02565b90508281526020810184848401111561203957612038611d9d565b5b612044848285611e4e565b509392505050565b600082601f83011261206157612060611d98565b5b813561207184826020860161200a565b91505092915050565b6000806000806080858703121561209457612093611a9a565b5b60006120a287828801611cf0565b94505060206120b387828801611cf0565b93505060406120c487828801611c3b565b925050606085013567ffffffffffffffff8111156120e5576120e4611a9f565b5b6120f18782880161204c565b91505092959194509250565b6000806040838503121561211457612113611a9a565b5b600061212285828601611cf0565b925050602061213385828601611cf0565b9150509250929050565b7f4e487b7100000000000000000000000000000000000000000000000000000000600052602260045260246000fd5b6000600282049050600182168061218457607f821691505b602082108114156121985761219761213d565b5b50919050565b7f4552433732313a20617070726f76656420717565727920666f72206e6f6e657860008201527f697374656e7420746f6b656e0000000000000000000000000000000000000000602082015250565b60006121fa602c83611b6a565b91506122058261219e565b604082019050919050565b60006020820190508181036000830152612229816121ed565b9050919050565b7f4552433732313a20617070726f76616c20746f2063757272656e74206f776e6560008201527f7200000000000000000000000000000000000000000000000000000000000000602082015250565b600061228c602183611b6a565b915061229782612230565b604082019050919050565b600060208201905081810360008301526122bb8161227f565b9050919050565b7f4552433732313a20617070726f76652063616c6c6572206973206e6f74206f7760008201527f6e6572206e6f7220617070726f76656420666f7220616c6c0000000000000000602082015250565b600061231e603883611b6a565b9150612329826122c2565b604082019050919050565b6000602082019050818103600083015261234d81612311565b9050919050565b7f4552433732313a207472616e736665722063616c6c6572206973206e6f74206f60008201527f776e6572206e6f7220617070726f766564000000000000000000000000000000602082015250565b60006123b0603183611b6a565b91506123bb82612354565b604082019050919050565b600060208201905081810360008301526123df816123a3565b9050919050565b7f4552433732313a206f776e657220717565727920666f72206e6f6e657869737460008201527f656e7420746f6b656e0000000000000000000000000000000000000000000000602082015250565b6000612442602983611b6a565b915061244d826123e6565b604082019050919050565b6000602082019050818103600083015261247181612435565b9050919050565b7f4552433732313a2062616c616e636520717565727920666f7220746865207a6560008201527f726f206164647265737300000000000000000000000000000000000000000000602082015250565b60006124d4602a83611b6a565b91506124df82612478565b604082019050919050565b60006020820190508181036000830152612503816124c7565b9050919050565b7f45524337323155524953746f726167653a2055524920717565727920666f722060008201527f6e6f6e6578697374656e7420746f6b656e000000000000000000000000000000602082015250565b6000612566603183611b6a565b91506125718261250a565b604082019050919050565b6000602082019050818103600083015261259581612559565b9050919050565b600081905092915050565b60006125b282611b5f565b6125bc818561259c565b93506125cc818560208601611b7b565b80840191505092915050565b60006125e482856125a7565b91506125f082846125a7565b91508190509392505050565b7f4552433732313a206f70657261746f7220717565727920666f72206e6f6e657860008201527f697374656e7420746f6b656e0000000000000000000000000000000000000000602082015250565b6000612658602c83611b6a565b9150612663826125fc565b604082019050919050565b600060208201905081810360008301526126878161264b565b9050919050565b7f4552433732313a207472616e736665722066726f6d20696e636f72726563742060008201527f6f776e6572000000000000000000000000000000000000000000000000000000602082015250565b60006126ea602583611b6a565b91506126f58261268e565b604082019050919050565b60006020820190508181036000830152612719816126dd565b9050919050565b7f4552433732313a207472616e7366657220746f20746865207a65726f2061646460008201527f7265737300000000000000000000000000000000000000000000000000000000602082015250565b600061277c602483611b6a565b915061278782612720565b604082019050919050565b600060208201905081810360008301526127ab8161276f565b9050919050565b7f4e487b7100000000000000000000000000000000000000000000000000000000600052601160045260246000fd5b60006127ec82611c1a565b91506127f783611c1a565b92508282101561280a576128096127b2565b5b828203905092915050565b600061282082611c1a565b915061282b83611c1a565b9250827fffffffffffffffffffffffffffffffffffffffffffffffffffffffffffffffff038211156128605761285f6127b2565b5b828201905092915050565b7f4552433732313a206d696e7420746f20746865207a65726f2061646472657373600082015250565b60006128a1602083611b6a565b91506128ac8261286b565b602082019050919050565b600060208201905081810360008301526128d081612894565b9050919050565b7f4552433732313a20746f6b656e20616c7265616479206d696e74656400000000600082015250565b600061290d601c83611b6a565b9150612918826128d7565b602082019050919050565b6000602082019050818103600083015261293c81612900565b9050919050565b7f45524337323155524953746f726167653a2055524920736574206f66206e6f6e60008201527f6578697374656e7420746f6b656e000000000000000000000000000000000000602082015250565b600061299f602e83611b6a565b91506129aa82612943565b604082019050919050565b600060208201905081810360008301526129ce81612992565b9050919050565b7f4552433732313a20617070726f766520746f2063616c6c657200000000000000600082015250565b6000612a0b601983611b6a565b9150612a16826129d5565b602082019050919050565b60006020820190508181036000830152612a3a816129fe565b9050919050565b7f4552433732313a207472616e7366657220746f206e6f6e20455243373231526560008201527f63656976657220696d706c656d656e7465720000000000000000000000000000602082015250565b6000612a9d603283611b6a565b9150612aa882612a41565b604082019050919050565b60006020820190508181036000830152612acc81612a90565b9050919050565b7f4552433732314d657461646174613a2055524920717565727920666f72206e6f60008201527f6e6578697374656e7420746f6b656e0000000000000000000000000000000000602082015250565b6000612b2f602f83611b6a565b9150612b3a82612ad3565b604082019050919050565b60006020820190508181036000830152612b5e81612b22565b9050919050565b600081519050919050565b600082825260208201905092915050565b6000612b8c82612b65565b612b968185612b70565b9350612ba6818560208601611b7b565b612baf81611bae565b840191505092915050565b6000608082019050612bcf6000830187611caf565b612bdc6020830186611caf565b612be96040830185611f16565b8181036060830152612bfb8184612b81565b905095945050505050565b600081519050612c1581611ad0565b92915050565b600060208284031215612c3157612c30611a9a565b5b6000612c3f84828501612c06565b91505092915050565b6000612c5382611c1a565b91507fffffffffffffffffffffffffffffffffffffffffffffffffffffffffffffffff821415612c8657612c856127b2565b5b600182019050919050565b7f4e487b7100000000000000000000000000000000000000000000000000000000600052601260045260246000fd5b6000612ccb82611c1a565b9150612cd683611c1a565b925082612ce657612ce5612c91565b5b828204905092915050565b6000612cfc82611c1a565b9150612d0783611c1a565b925082612d1757612d16612c91565b5b828206905092915050565b7f4e487b7100000000000000000000000000000000000000000000000000000000600052603260045260246000fdfea2646970667358221220ab23d689c319cd5b642181f1360ac0db9d005e994d27bce178e902858514198964736f6c63430008090033",
  "linkReferences": {},
  "deployedLinkReferences": {}
}