{
  "_format": "hh-sol-artifact-1",
  "contractName": "FactoryNFT",
  "sourceName": "contracts/FactoryNFT.sol",
  "abi": [
    {
      "inputs": [],
      "stateMutability": "nonpayable",
      "type": "constructor"
    },
    {
      "anonymous": false,
      "inputs": [
        {
          "indexed": true,
          "internalType": "address",
          "name": "owner",
          "type": "address"
        },
        {
          "indexed": true,
          "internalType": "address",
          "name": "approved",
          "type": "address"
        },
        {
          "indexed": true,
          "internalType": "uint256",
          "name": "tokenId",
          "type": "uint256"
        }
      ],
      "name": "Approval",
      "type": "event"
    },
    {
      "anonymous": false,
      "inputs": [
        {
          "indexed": true,
          "internalType": "address",
          "name": "owner",
          "type": "address"
        },
        {
          "indexed": true,
          "internalType": "address",
          "name": "operator",
          "type": "address"
        },
        {
          "indexed": false,
          "internalType": "bool",
          "name": "approved",
          "type": "bool"
        }
      ],
      "name": "ApprovalForAll",
      "type": "event"
    },
    {
      "anonymous": false,
      "inputs": [
        {
          "indexed": false,
          "internalType": "uint256",
          "name": "allowlistStartTime",
          "type": "uint256"
        }
      ],
      "name": "Initialized",
      "type": "event"
    },
    {
      "anonymous": false,
      "inputs": [
        {
          "indexed": true,
          "internalType": "address",
          "name": "from",
          "type": "address"
        },
        {
          "indexed": true,
          "internalType": "address",
          "name": "to",
          "type": "address"
        },
        {
          "indexed": true,
          "internalType": "uint256",
          "name": "tokenId",
          "type": "uint256"
        }
      ],
      "name": "Transfer",
      "type": "event"
    },
    {
      "inputs": [
        {
          "internalType": "address",
          "name": "to",
          "type": "address"
        },
        {
          "internalType": "uint256",
          "name": "tokenId",
          "type": "uint256"
        }
      ],
      "name": "approve",
      "outputs": [],
      "stateMutability": "nonpayable",
      "type": "function"
    },
    {
      "inputs": [
        {
          "internalType": "address",
          "name": "owner",
          "type": "address"
        }
      ],
      "name": "balanceOf",
      "outputs": [
        {
          "internalType": "uint256",
          "name": "",
          "type": "uint256"
        }
      ],
      "stateMutability": "view",
      "type": "function"
    },
    {
      "inputs": [
        {
          "internalType": "string",
          "name": "tokenURI",
          "type": "string"
        }
      ],
      "name": "createToken",
      "outputs": [
        {
          "internalType": "uint256",
          "name": "",
          "type": "uint256"
        }
      ],
      "stateMutability": "nonpayable",
      "type": "function"
    },
    {
      "inputs": [],
      "name": "emitEvent",
      "outputs": [
        {
          "internalType": "uint256",
          "name": "",
          "type": "uint256"
        }
      ],
      "stateMutability": "payable",
      "type": "function"
    },
    {
      "inputs": [
        {
          "internalType": "uint256",
          "name": "tokenId",
          "type": "uint256"
        }
      ],
      "name": "getApproved",
      "outputs": [
        {
          "internalType": "address",
          "name": "",
          "type": "address"
        }
      ],
      "stateMutability": "view",
      "type": "function"
    },
    {
      "inputs": [
        {
          "internalType": "address",
          "name": "owner",
          "type": "address"
        },
        {
          "internalType": "address",
          "name": "operator",
          "type": "address"
        }
      ],
      "name": "isApprovedForAll",
      "outputs": [
        {
          "internalType": "bool",
          "name": "",
          "type": "bool"
        }
      ],
      "stateMutability": "view",
      "type": "function"
    },
    {
      "inputs": [],
      "name": "name",
      "outputs": [
        {
          "internalType": "string",
          "name": "",
          "type": "string"
        }
      ],
      "stateMutability": "view",
      "type": "function"
    },
    {
      "inputs": [
        {
          "internalType": "uint256",
          "name": "tokenId",
          "type": "uint256"
        }
      ],
      "name": "ownerOf",
      "outputs": [
        {
          "internalType": "address",
          "name": "",
          "type": "address"
        }
      ],
      "stateMutability": "view",
      "type": "function"
    },
    {
      "inputs": [
        {
          "internalType": "address",
          "name": "from",
          "type": "address"
        },
        {
          "internalType": "address",
          "name": "to",
          "type": "address"
        },
        {
          "internalType": "uint256",
          "name": "tokenId",
          "type": "uint256"
        }
      ],
      "name": "safeTransferFrom",
      "outputs": [],
      "stateMutability": "nonpayable",
      "type": "function"
    },
    {
      "inputs": [
        {
          "internalType": "address",
          "name": "from",
          "type": "address"
        },
        {
          "internalType": "address",
          "name": "to",
          "type": "address"
        },
        {
          "internalType": "uint256",
          "name": "tokenId",
          "type": "uint256"
        },
        {
          "internalType": "bytes",
          "name": "_data",
          "type": "bytes"
        }
      ],
      "name": "safeTransferFrom",
      "outputs": [],
      "stateMutability": "nonpayable",
      "type": "function"
    },
    {
      "inputs": [
        {
          "internalType": "address",
          "name": "operator",
          "type": "address"
        },
        {
          "internalType": "bool",
          "name": "approved",
          "type": "bool"
        }
      ],
      "name": "setApprovalForAll",
      "outputs": [],
      "stateMutability": "nonpayable",
      "type": "function"
    },
    {
      "inputs": [
        {
          "internalType": "bytes4",
          "name": "interfaceId",
          "type": "bytes4"
        }
      ],
      "name": "supportsInterface",
      "outputs": [
        {
          "internalType": "bool",
          "name": "",
          "type": "bool"
        }
      ],
      "stateMutability": "view",
      "type": "function"
    },
    {
      "inputs": [],
      "name": "symbol",
      "outputs": [
        {
          "internalType": "string",
          "name": "",
          "type": "string"
        }
      ],
      "stateMutability": "view",
      "type": "function"
    },
    {
      "inputs": [
        {
          "internalType": "uint256",
          "name": "tokenId",
          "type": "uint256"
        }
      ],
      "name": "tokenURI",
      "outputs": [
        {
          "internalType": "string",
          "name": "",
          "type": "string"
        }
      ],
      "stateMutability": "view",
      "type": "function"
    },
    {
      "inputs": [
        {
          "internalType": "address",
          "name": "from",
          "type": "address"
        },
        {
          "internalType": "address",
          "name": "to",
          "type": "address"
        },
        {
          "internalType": "uint256",
          "name": "tokenId",
          "type": "uint256"
        }
      ],
      "name": "transferFrom",
      "outputs": [],
      "stateMutability": "nonpayable",
      "type": "function"
    }
  ],
  "bytecode": "0x60806040523480156200001157600080fd5b506040518060400160405280600b81526020017f466163746f7279204e46540000000000000000000000000000000000000000008152506040518060400160405280600381526020017f46544e0000000000000000000000000000000000000000000000000000000000815250816000908051906020019062000096929190620000b8565b508060019080519060200190620000af929190620000b8565b505050620001cd565b828054620000c69062000197565b90600052602060002090601f016020900481019282620000ea576000855562000136565b82601f106200010557805160ff191683800117855562000136565b8280016001018555821562000136579182015b828111156200013557825182559160200191906001019062000118565b5b50905062000145919062000149565b5090565b5b80821115620001645760008160009055506001016200014a565b5090565b7f4e487b7100000000000000000000000000000000000000000000000000000000600052602260045260246000fd5b60006002820490506001821680620001b057607f821691505b60208210811415620001c757620001c662000168565b5b50919050565b612cd480620001dd6000396000f3fe6080604052600436106100e85760003560e01c80636352211e1161008a578063a22cb46511610059578063a22cb4651461030d578063b88d4fde14610336578063c87b56dd1461035f578063e985e9c51461039c576100e8565b80636352211e1461024a57806370a08231146102875780637b0cb839146102c457806395d89b41146102e2576100e8565b8063095ea7b3116100c6578063095ea7b31461019257806323b872dd146101bb57806342842e0e146101e457806345576f941461020d576100e8565b806301ffc9a7146100ed57806306fdde031461012a578063081812fc14610155575b600080fd5b3480156100f957600080fd5b50610114600480360381019061010f9190611a49565b6103d9565b6040516101219190611a91565b60405180910390f35b34801561013657600080fd5b5061013f6104bb565b60405161014c9190611b45565b60405180910390f35b34801561016157600080fd5b5061017c60048036038101906101779190611b9d565b61054d565b6040516101899190611c0b565b60405180910390f35b34801561019e57600080fd5b506101b960048036038101906101b49190611c52565b6105d2565b005b3480156101c757600080fd5b506101e260048036038101906101dd9190611c92565b6106ea565b005b3480156101f057600080fd5b5061020b60048036038101906102069190611c92565b61074a565b005b34801561021957600080fd5b50610234600480360381019061022f9190611e1a565b61076a565b6040516102419190611e72565b60405180910390f35b34801561025657600080fd5b50610271600480360381019061026c9190611b9d565b6107a1565b60405161027e9190611c0b565b60405180910390f35b34801561029357600080fd5b506102ae60048036038101906102a99190611e8d565b610853565b6040516102bb9190611e72565b60405180910390f35b6102cc61090b565b6040516102d99190611e72565b60405180910390f35b3480156102ee57600080fd5b506102f7610950565b6040516103049190611b45565b60405180910390f35b34801561031957600080fd5b50610334600480360381019061032f9190611ee6565b6109e2565b005b34801561034257600080fd5b5061035d60048036038101906103589190611fc7565b6109f8565b005b34801561036b57600080fd5b5061038660048036038101906103819190611b9d565b610a5a565b6040516103939190611b45565b60405180910390f35b3480156103a857600080fd5b506103c360048036038101906103be919061204a565b610bac565b6040516103d09190611a91565b60405180910390f35b60007f80ac58cd000000000000000000000000000000000000000000000000000000007bffffffffffffffffffffffffffffffffffffffffffffffffffffffff1916827bffffffffffffffffffffffffffffffffffffffffffffffffffffffff191614806104a457507f5b5e139f000000000000000000000000000000000000000000000000000000007bffffffffffffffffffffffffffffffffffffffffffffffffffffffff1916827bffffffffffffffffffffffffffffffffffffffffffffffffffffffff1916145b806104b457506104b382610c40565b5b9050919050565b6060600080546104ca906120b9565b80601f01602080910402602001604051908101604052809291908181526020018280546104f6906120b9565b80156105435780601f1061051857610100808354040283529160200191610543565b820191906000526020600020905b81548152906001019060200180831161052657829003601f168201915b5050505050905090565b600061055882610caa565b610597576040517f08c379a000000000000000000000000000000000000000000000000000000000815260040161058e9061215d565b60405180910390fd5b6004600083815260200190815260200160002060009054906101000a900473ffffffffffffffffffffffffffffffffffffffff169050919050565b60006105dd826107a1565b90508073ffffffffffffffffffffffffffffffffffffffff168373ffffffffffffffffffffffffffffffffffffffff16141561064e576040517f08c379a0000000000000000000000000000000000000000000000000000000008152600401610645906121ef565b60405180910390fd5b8073ffffffffffffffffffffffffffffffffffffffff1661066d610d16565b73ffffffffffffffffffffffffffffffffffffffff16148061069c575061069b81610696610d16565b610bac565b5b6106db576040517f08c379a00000000000000000000000000000000000000000000000000000000081526004016106d290612281565b60405180910390fd5b6106e58383610d1e565b505050565b6106fb6106f5610d16565b82610dd7565b61073a576040517f08c379a000000000000000000000000000000000000000000000000000000000815260040161073190612313565b60405180910390fd5b610745838383610eb5565b505050565b610765838383604051806020016040528060008152506109f8565b505050565b6000610776600761111c565b60006107826007611132565b905061078e3382611140565b610798818461131a565b80915050919050565b6000806002600084815260200190815260200160002060009054906101000a900473ffffffffffffffffffffffffffffffffffffffff169050600073ffffffffffffffffffffffffffffffffffffffff168173ffffffffffffffffffffffffffffffffffffffff16141561084a576040517f08c379a0000000000000000000000000000000000000000000000000000000008152600401610841906123a5565b60405180910390fd5b80915050919050565b60008073ffffffffffffffffffffffffffffffffffffffff168273ffffffffffffffffffffffffffffffffffffffff1614156108c4576040517f08c379a00000000000000000000000000000000000000000000000000000000081526004016108bb90612437565b60405180910390fd5b600360008373ffffffffffffffffffffffffffffffffffffffff1673ffffffffffffffffffffffffffffffffffffffff168152602001908152602001600020549050919050565b600080606490507fbe9b076dc5b65990cca9dd9d7366682482e7817a6f6bc7f4faf4dc32af497f32816040516109419190611e72565b60405180910390a18091505090565b60606001805461095f906120b9565b80601f016020809104026020016040519081016040528092919081815260200182805461098b906120b9565b80156109d85780601f106109ad576101008083540402835291602001916109d8565b820191906000526020600020905b8154815290600101906020018083116109bb57829003601f168201915b5050505050905090565b6109f46109ed610d16565b838361138e565b5050565b610a09610a03610d16565b83610dd7565b610a48576040517f08c379a0000000000000000000000000000000000000000000000000000000008152600401610a3f90612313565b60405180910390fd5b610a54848484846114fb565b50505050565b6060610a6582610caa565b610aa4576040517f08c379a0000000000000000000000000000000000000000000000000000000008152600401610a9b906124c9565b60405180910390fd5b6000600660008481526020019081526020016000208054610ac4906120b9565b80601f0160208091040260200160405190810160405280929190818152602001828054610af0906120b9565b8015610b3d5780601f10610b1257610100808354040283529160200191610b3d565b820191906000526020600020905b815481529060010190602001808311610b2057829003601f168201915b505050505090506000610b4e611557565b9050600081511415610b64578192505050610ba7565b600082511115610b99578082604051602001610b81929190612525565b60405160208183030381529060405292505050610ba7565b610ba28461156e565b925050505b919050565b6000600560008473ffffffffffffffffffffffffffffffffffffffff1673ffffffffffffffffffffffffffffffffffffffff16815260200190815260200160002060008373ffffffffffffffffffffffffffffffffffffffff1673ffffffffffffffffffffffffffffffffffffffff16815260200190815260200160002060009054906101000a900460ff16905092915050565b60007f01ffc9a7000000000000000000000000000000000000000000000000000000007bffffffffffffffffffffffffffffffffffffffffffffffffffffffff1916827bffffffffffffffffffffffffffffffffffffffffffffffffffffffff1916149050919050565b60008073ffffffffffffffffffffffffffffffffffffffff166002600084815260200190815260200160002060009054906101000a900473ffffffffffffffffffffffffffffffffffffffff1673ffffffffffffffffffffffffffffffffffffffff1614159050919050565b600033905090565b816004600083815260200190815260200160002060006101000a81548173ffffffffffffffffffffffffffffffffffffffff021916908373ffffffffffffffffffffffffffffffffffffffff160217905550808273ffffffffffffffffffffffffffffffffffffffff16610d91836107a1565b73ffffffffffffffffffffffffffffffffffffffff167f8c5be1e5ebec7d5bd14f71427d1e84f3dd0314c0f7b2291e5b200ac8c7c3b92560405160405180910390a45050565b6000610de282610caa565b610e21576040517f08c379a0000000000000000000000000000000000000000000000000000000008152600401610e18906125bb565b60405180910390fd5b6000610e2c836107a1565b90508073ffffffffffffffffffffffffffffffffffffffff168473ffffffffffffffffffffffffffffffffffffffff161480610e6e5750610e6d8185610bac565b5b80610eac57508373ffffffffffffffffffffffffffffffffffffffff16610e948461054d565b73ffffffffffffffffffffffffffffffffffffffff16145b91505092915050565b8273ffffffffffffffffffffffffffffffffffffffff16610ed5826107a1565b73ffffffffffffffffffffffffffffffffffffffff1614610f2b576040517f08c379a0000000000000000000000000000000000000000000000000000000008152600401610f229061264d565b60405180910390fd5b600073ffffffffffffffffffffffffffffffffffffffff168273ffffffffffffffffffffffffffffffffffffffff161415610f9b576040517f08c379a0000000000000000000000000000000000000000000000000000000008152600401610f92906126df565b60405180910390fd5b610fa6838383611615565b610fb1600082610d1e565b6001600360008573ffffffffffffffffffffffffffffffffffffffff1673ffffffffffffffffffffffffffffffffffffffff1681526020019081526020016000206000828254611001919061272e565b925050819055506001600360008473ffffffffffffffffffffffffffffffffffffffff1673ffffffffffffffffffffffffffffffffffffffff16815260200190815260200160002060008282546110589190612762565b92505081905550816002600083815260200190815260200160002060006101000a81548173ffffffffffffffffffffffffffffffffffffffff021916908373ffffffffffffffffffffffffffffffffffffffff160217905550808273ffffffffffffffffffffffffffffffffffffffff168473ffffffffffffffffffffffffffffffffffffffff167fddf252ad1be2c89b69c2b068fc378daa952ba7f163c4a11628f55a4df523b3ef60405160405180910390a461111783838361161a565b505050565b6001816000016000828254019250508190555050565b600081600001549050919050565b600073ffffffffffffffffffffffffffffffffffffffff168273ffffffffffffffffffffffffffffffffffffffff1614156111b0576040517f08c379a00000000000000000000000000000000000000000000000000000000081526004016111a790612804565b60405180910390fd5b6111b981610caa565b156111f9576040517f08c379a00000000000000000000000000000000000000000000000000000000081526004016111f090612870565b60405180910390fd5b61120560008383611615565b6001600360008473ffffffffffffffffffffffffffffffffffffffff1673ffffffffffffffffffffffffffffffffffffffff16815260200190815260200160002060008282546112559190612762565b92505081905550816002600083815260200190815260200160002060006101000a81548173ffffffffffffffffffffffffffffffffffffffff021916908373ffffffffffffffffffffffffffffffffffffffff160217905550808273ffffffffffffffffffffffffffffffffffffffff16600073ffffffffffffffffffffffffffffffffffffffff167fddf252ad1be2c89b69c2b068fc378daa952ba7f163c4a11628f55a4df523b3ef60405160405180910390a46113166000838361161a565b5050565b61132382610caa565b611362576040517f08c379a000000000000000000000000000000000000000000000000000000000815260040161135990612902565b60405180910390fd5b8060066000848152602001908152602001600020908051906020019061138992919061193a565b505050565b8173ffffffffffffffffffffffffffffffffffffffff168373ffffffffffffffffffffffffffffffffffffffff1614156113fd576040517f08c379a00000000000000000000000000000000000000000000000000000000081526004016113f49061296e565b60405180910390fd5b80600560008573ffffffffffffffffffffffffffffffffffffffff1673ffffffffffffffffffffffffffffffffffffffff16815260200190815260200160002060008473ffffffffffffffffffffffffffffffffffffffff1673ffffffffffffffffffffffffffffffffffffffff16815260200190815260200160002060006101000a81548160ff0219169083151502179055508173ffffffffffffffffffffffffffffffffffffffff168373ffffffffffffffffffffffffffffffffffffffff167f17307eab39ab6107e8899845ad3d59bd9653f200f220920489ca2b5937696c31836040516114ee9190611a91565b60405180910390a3505050565b611506848484610eb5565b6115128484848461161f565b611551576040517f08c379a000000000000000000000000000000000000000000000000000000000815260040161154890612a00565b60405180910390fd5b50505050565b606060405180602001604052806000815250905090565b606061157982610caa565b6115b8576040517f08c379a00000000000000000000000000000000000000000000000000000000081526004016115af90612a92565b60405180910390fd5b60006115c2611557565b905060008151116115e2576040518060200160405280600081525061160d565b806115ec846117b6565b6040516020016115fd929190612525565b6040516020818303038152906040525b915050919050565b505050565b505050565b60006116408473ffffffffffffffffffffffffffffffffffffffff16611917565b156117a9578373ffffffffffffffffffffffffffffffffffffffff1663150b7a02611669610d16565b8786866040518563ffffffff1660e01b815260040161168b9493929190612b07565b602060405180830381600087803b1580156116a557600080fd5b505af19250505080156116d657506040513d601f19601f820116820180604052508101906116d39190612b68565b60015b611759573d8060008114611706576040519150601f19603f3d011682016040523d82523d6000602084013e61170b565b606091505b50600081511415611751576040517f08c379a000000000000000000000000000000000000000000000000000000000815260040161174890612a00565b60405180910390fd5b805181602001fd5b63150b7a0260e01b7bffffffffffffffffffffffffffffffffffffffffffffffffffffffff1916817bffffffffffffffffffffffffffffffffffffffffffffffffffffffff1916149150506117ae565b600190505b949350505050565b606060008214156117fe576040518060400160405280600181526020017f30000000000000000000000000000000000000000000000000000000000000008152509050611912565b600082905060005b6000821461183057808061181990612b95565b915050600a826118299190612c0d565b9150611806565b60008167ffffffffffffffff81111561184c5761184b611cef565b5b6040519080825280601f01601f19166020018201604052801561187e5781602001600182028036833780820191505090505b5090505b6000851461190b57600182611897919061272e565b9150600a856118a69190612c3e565b60306118b29190612762565b60f81b8183815181106118c8576118c7612c6f565b5b60200101907effffffffffffffffffffffffffffffffffffffffffffffffffffffffffffff1916908160001a905350600a856119049190612c0d565b9450611882565b8093505050505b919050565b6000808273ffffffffffffffffffffffffffffffffffffffff163b119050919050565b828054611946906120b9565b90600052602060002090601f01602090048101928261196857600085556119af565b82601f1061198157805160ff19168380011785556119af565b828001600101855582156119af579182015b828111156119ae578251825591602001919060010190611993565b5b5090506119bc91906119c0565b5090565b5b808211156119d95760008160009055506001016119c1565b5090565b6000604051905090565b600080fd5b600080fd5b60007fffffffff0000000000000000000000000000000000000000000000000000000082169050919050565b611a26816119f1565b8114611a3157600080fd5b50565b600081359050611a4381611a1d565b92915050565b600060208284031215611a5f57611a5e6119e7565b5b6000611a6d84828501611a34565b91505092915050565b60008115159050919050565b611a8b81611a76565b82525050565b6000602082019050611aa66000830184611a82565b92915050565b600081519050919050565b600082825260208201905092915050565b60005b83811015611ae6578082015181840152602081019050611acb565b83811115611af5576000848401525b50505050565b6000601f19601f8301169050919050565b6000611b1782611aac565b611b218185611ab7565b9350611b31818560208601611ac8565b611b3a81611afb565b840191505092915050565b60006020820190508181036000830152611b5f8184611b0c565b905092915050565b6000819050919050565b611b7a81611b67565b8114611b8557600080fd5b50565b600081359050611b9781611b71565b92915050565b600060208284031215611bb357611bb26119e7565b5b6000611bc184828501611b88565b91505092915050565b600073ffffffffffffffffffffffffffffffffffffffff82169050919050565b6000611bf582611bca565b9050919050565b611c0581611bea565b82525050565b6000602082019050611c206000830184611bfc565b92915050565b611c2f81611bea565b8114611c3a57600080fd5b50565b600081359050611c4c81611c26565b92915050565b60008060408385031215611c6957611c686119e7565b5b6000611c7785828601611c3d565b9250506020611c8885828601611b88565b9150509250929050565b600080600060608486031215611cab57611caa6119e7565b5b6000611cb986828701611c3d565b9350506020611cca86828701611c3d565b9250506040611cdb86828701611b88565b9150509250925092565b600080fd5b600080fd5b7f4e487b7100000000000000000000000000000000000000000000000000000000600052604160045260246000fd5b611d2782611afb565b810181811067ffffffffffffffff82111715611d4657611d45611cef565b5b80604052505050565b6000611d596119dd565b9050611d658282611d1e565b919050565b600067ffffffffffffffff821115611d8557611d84611cef565b5b611d8e82611afb565b9050602081019050919050565b82818337600083830152505050565b6000611dbd611db884611d6a565b611d4f565b905082815260208101848484011115611dd957611dd8611cea565b5b611de4848285611d9b565b509392505050565b600082601f830112611e0157611e00611ce5565b5b8135611e11848260208601611daa565b91505092915050565b600060208284031215611e3057611e2f6119e7565b5b600082013567ffffffffffffffff811115611e4e57611e4d6119ec565b5b611e5a84828501611dec565b91505092915050565b611e6c81611b67565b82525050565b6000602082019050611e876000830184611e63565b92915050565b600060208284031215611ea357611ea26119e7565b5b6000611eb184828501611c3d565b91505092915050565b611ec381611a76565b8114611ece57600080fd5b50565b600081359050611ee081611eba565b92915050565b60008060408385031215611efd57611efc6119e7565b5b6000611f0b85828601611c3d565b9250506020611f1c85828601611ed1565b9150509250929050565b600067ffffffffffffffff821115611f4157611f40611cef565b5b611f4a82611afb565b9050602081019050919050565b6000611f6a611f6584611f26565b611d4f565b905082815260208101848484011115611f8657611f85611cea565b5b611f91848285611d9b565b509392505050565b600082601f830112611fae57611fad611ce5565b5b8135611fbe848260208601611f57565b91505092915050565b60008060008060808587031215611fe157611fe06119e7565b5b6000611fef87828801611c3d565b945050602061200087828801611c3d565b935050604061201187828801611b88565b925050606085013567ffffffffffffffff811115612032576120316119ec565b5b61203e87828801611f99565b91505092959194509250565b60008060408385031215612061576120606119e7565b5b600061206f85828601611c3d565b925050602061208085828601611c3d565b9150509250929050565b7f4e487b7100000000000000000000000000000000000000000000000000000000600052602260045260246000fd5b600060028204905060018216806120d157607f821691505b602082108114156120e5576120e461208a565b5b50919050565b7f4552433732313a20617070726f76656420717565727920666f72206e6f6e657860008201527f697374656e7420746f6b656e0000000000000000000000000000000000000000602082015250565b6000612147602c83611ab7565b9150612152826120eb565b604082019050919050565b600060208201905081810360008301526121768161213a565b9050919050565b7f4552433732313a20617070726f76616c20746f2063757272656e74206f776e6560008201527f7200000000000000000000000000000000000000000000000000000000000000602082015250565b60006121d9602183611ab7565b91506121e48261217d565b604082019050919050565b60006020820190508181036000830152612208816121cc565b9050919050565b7f4552433732313a20617070726f76652063616c6c6572206973206e6f74206f7760008201527f6e6572206e6f7220617070726f76656420666f7220616c6c0000000000000000602082015250565b600061226b603883611ab7565b91506122768261220f565b604082019050919050565b6000602082019050818103600083015261229a8161225e565b9050919050565b7f4552433732313a207472616e736665722063616c6c6572206973206e6f74206f60008201527f776e6572206e6f7220617070726f766564000000000000000000000000000000602082015250565b60006122fd603183611ab7565b9150612308826122a1565b604082019050919050565b6000602082019050818103600083015261232c816122f0565b9050919050565b7f4552433732313a206f776e657220717565727920666f72206e6f6e657869737460008201527f656e7420746f6b656e0000000000000000000000000000000000000000000000602082015250565b600061238f602983611ab7565b915061239a82612333565b604082019050919050565b600060208201905081810360008301526123be81612382565b9050919050565b7f4552433732313a2062616c616e636520717565727920666f7220746865207a6560008201527f726f206164647265737300000000000000000000000000000000000000000000602082015250565b6000612421602a83611ab7565b915061242c826123c5565b604082019050919050565b6000602082019050818103600083015261245081612414565b9050919050565b7f45524337323155524953746f726167653a2055524920717565727920666f722060008201527f6e6f6e6578697374656e7420746f6b656e000000000000000000000000000000602082015250565b60006124b3603183611ab7565b91506124be82612457565b604082019050919050565b600060208201905081810360008301526124e2816124a6565b9050919050565b600081905092915050565b60006124ff82611aac565b61250981856124e9565b9350612519818560208601611ac8565b80840191505092915050565b600061253182856124f4565b915061253d82846124f4565b91508190509392505050565b7f4552433732313a206f70657261746f7220717565727920666f72206e6f6e657860008201527f697374656e7420746f6b656e0000000000000000000000000000000000000000602082015250565b60006125a5602c83611ab7565b91506125b082612549565b604082019050919050565b600060208201905081810360008301526125d481612598565b9050919050565b7f4552433732313a207472616e736665722066726f6d20696e636f72726563742060008201527f6f776e6572000000000000000000000000000000000000000000000000000000602082015250565b6000612637602583611ab7565b9150612642826125db565b604082019050919050565b600060208201905081810360008301526126668161262a565b9050919050565b7f4552433732313a207472616e7366657220746f20746865207a65726f2061646460008201527f7265737300000000000000000000000000000000000000000000000000000000602082015250565b60006126c9602483611ab7565b91506126d48261266d565b604082019050919050565b600060208201905081810360008301526126f8816126bc565b9050919050565b7f4e487b7100000000000000000000000000000000000000000000000000000000600052601160045260246000fd5b600061273982611b67565b915061274483611b67565b925082821015612757576127566126ff565b5b828203905092915050565b600061276d82611b67565b915061277883611b67565b9250827fffffffffffffffffffffffffffffffffffffffffffffffffffffffffffffffff038211156127ad576127ac6126ff565b5b828201905092915050565b7f4552433732313a206d696e7420746f20746865207a65726f2061646472657373600082015250565b60006127ee602083611ab7565b91506127f9826127b8565b602082019050919050565b6000602082019050818103600083015261281d816127e1565b9050919050565b7f4552433732313a20746f6b656e20616c7265616479206d696e74656400000000600082015250565b600061285a601c83611ab7565b915061286582612824565b602082019050919050565b600060208201905081810360008301526128898161284d565b9050919050565b7f45524337323155524953746f726167653a2055524920736574206f66206e6f6e60008201527f6578697374656e7420746f6b656e000000000000000000000000000000000000602082015250565b60006128ec602e83611ab7565b91506128f782612890565b604082019050919050565b6000602082019050818103600083015261291b816128df565b9050919050565b7f4552433732313a20617070726f766520746f2063616c6c657200000000000000600082015250565b6000612958601983611ab7565b915061296382612922565b602082019050919050565b600060208201905081810360008301526129878161294b565b9050919050565b7f4552433732313a207472616e7366657220746f206e6f6e20455243373231526560008201527f63656976657220696d706c656d656e7465720000000000000000000000000000602082015250565b60006129ea603283611ab7565b91506129f58261298e565b604082019050919050565b60006020820190508181036000830152612a19816129dd565b9050919050565b7f4552433732314d657461646174613a2055524920717565727920666f72206e6f60008201527f6e6578697374656e7420746f6b656e0000000000000000000000000000000000602082015250565b6000612a7c602f83611ab7565b9150612a8782612a20565b604082019050919050565b60006020820190508181036000830152612aab81612a6f565b9050919050565b600081519050919050565b600082825260208201905092915050565b6000612ad982612ab2565b612ae38185612abd565b9350612af3818560208601611ac8565b612afc81611afb565b840191505092915050565b6000608082019050612b1c6000830187611bfc565b612b296020830186611bfc565b612b366040830185611e63565b8181036060830152612b488184612ace565b905095945050505050565b600081519050612b6281611a1d565b92915050565b600060208284031215612b7e57612b7d6119e7565b5b6000612b8c84828501612b53565b91505092915050565b6000612ba082611b67565b91507fffffffffffffffffffffffffffffffffffffffffffffffffffffffffffffffff821415612bd357612bd26126ff565b5b600182019050919050565b7f4e487b7100000000000000000000000000000000000000000000000000000000600052601260045260246000fd5b6000612c1882611b67565b9150612c2383611b67565b925082612c3357612c32612bde565b5b828204905092915050565b6000612c4982611b67565b9150612c5483611b67565b925082612c6457612c63612bde565b5b828206905092915050565b7f4e487b7100000000000000000000000000000000000000000000000000000000600052603260045260246000fdfea264697066735822122064327480acd6dc0a8aa2a4d39e29b152cb8721c1d024ad3376488c4c245c978a64736f6c63430008090033",
  "linkReferences": {},
  "deployedLinkReferences": {}
}